:0300000002109F4C
:0C109F00787FE4F6D8FD75817C0210E635
:101409007580FFC2A5D2A6D2A7AF80C2A7057BE58A
:0E1419007BD39432748094805004EF20E7E976
:0114270022A2
:10147700AE07121409C2A5C2A68E80D2A7C2A722A0
:0614280014F912064BFF4F
:10142E00AE07121409D2A5C2A68E80D2A7C2A722D9
:10143E007F381214777F0C1214777F061214777F81
:04144E00010214770C
:10146500AE07ED6005EE24C08001EE4480FF121446
:021475007722DC
:1013C7008B788A79897A121465AB78AA79A97A1207
:1013D700064B600D057AE57A7002057912142880AC
:0213E700E822FA
:06130A008F158D168B17F4
:10131000E4FDEDC39408748094805030E5172440B8
:10132000FFE433FEED2403FCEFA804088006CEA200
:10133000E713CE13D8F8FF121477AB18051AE51A85
:10134000AA19700205191214280D80C6AD16AF1522
:08135000121465AF1702142E00
:0A0F63008E088F098B0A8A0B890C97
:100F6D00E4F50DF50EC3E50864809480501CC3E4D0
:100F7D009509F509E49508F508050CE50C700205D1
:100F8D000B14F9742D120691050EAE08AF097C00F5
:100F9D007D0A1206A3ED2430FFAE0D050D740F2E44
:100FAD00F8A607AE08AF097C007D0A1206A38E08CD
:100FBD008F09D3E5099400E5086480948050CBE552
:100FCD000D250EF50EAF0D150DD3EF940074809415
:100FDD0080401B740F250DF8E6FFAB0A050CE50CE0
:100FED00AA0B7002050B14F9EF12069180D7AB0A0C
:0A0FFD00AA0BA90CE4120691AF0E36
:0110070022C6
:06112B008B1B8A1C891DCC
:10113100EFC4540FFED3940974809480500EEE24B2
:1011410030FD051DE51D7014051C8010EE2437FDD2
:10115100AB1B051DE51DAA1C7002051C14F9ED123F
:101161000691EF540FFED39409748094805012EECF
:101171002430FFAB1B051DE51DAA1C7014051C8046
:1011810010EE2437FFAB1B051DE51DAA1C700205DF
:101191001C14F9EF120691AB1BAA1CA91DE402064F
:0111A10091BC
:101210002020202057656C636F6D65210020202001
:101220003030303030303030303000494E460025DC
:101230002E33660020202020202020202020202067
:10124000202020200000000000000000000000001E
:10125000000000000000000000000000000000008E
:05126000000000000089
:1012B90010440000000000000000000000000000D1
:1012C90000001023000000000000000000000000E2
:1012D90000000000C10CC10BC109C10A013B00019A
:1012E9003900013300013A00013800012200043CB1
:1012F9000000000004400000000004340000000069
:101008007554FF12143E7F147E001213E97BFF7A99
:10101800127910E4FDFF1213C77BFF7A12791D7D48
:1010280001E4FF1213C77FD07E071213E97F011274
:1010380014777F147E001213E91211A28F54EFF473
:10104800600F120BE17B007A007944E4FDFF121374
:10105800C7300B0FC20B7BFF7A12792B7D01E4FF9F
:101068001213C73009D3C209D20C7558FF7559122B
:10107800755A2F85375E85365D85355C85345B7B93
:10108800007A0079231207CE7B007A0079237D014C
:07109800E4FF1213C780A260
:020BE1008F552E
:100BE30078567C007D007BFF7A1279457E007F106A
:100BF30012062578667C007D007BFF7A1279557E8C
:100C0300007F10120625E4F576F577300C28C20C28
:100C1300F576C3E576941074809480500B74442564
:100C230076F87620057680EAE4F53B7BFF7A127945
:100C330034FDFF1213C7E555B410004003020D75D0
:100C4300900C4AF8282873020CFB020C7A020D1E42
:100C5300020D2F020C87020C94020CA1020D41021B
:100C63000CAE020CBB020CC8020D53020CD5020CD5
:100C7300E2020CEF020D65AF3B053B74442FF8769F
:100C830030020D75AF3B053B74442FF87631020DEE
:100C930075AF3B053B74442FF87632020D75AF3BBD
:100CA300053B74442FF87633020D75AF3B053B7457
:100CB300442FF87634020D75AF3B053B74442FF88F
:100CC3007635020D75AF3B053B74442FF87636023B
:100CD3000D75AF3B053B74442FF87637020D75AFA6
:100CE3003B053B74442FF87638020D75AF3B053B4B
:100CF30074442FF87639807A7443253BF8E6B42E92
:100D03000ED20CE4F53AF53B7F011214778063AF02
:100D13003B053B74442FF8762E8057D20A853B3926
:100D2300AF3B053B74442FF8763D8046E4F53885A8
:100D33003B33AF3B053B74442FF8762B8034753837
:100D430001853B33AF3B053B74442FF8762D80225E
:100D5300753802853B33AF3B053B74442FF8762A45
:100D63008010753803853B33AF3B053B74442FF844
:100D7300762F200A03020E7CC20AE4F53BE53A60B3
:100D830010053A85373F85363E85353D85343C80B1
:100D93002F053AE4F576E576C3953350127444256E
:100DA30076F8E6FF74562576F8A607057680E77B86
:100DB300007A0079561213588F3F8E3E8D3D8C3C3E
:100DC300E4F577E53304F576E576C3953950157484
:100DD300442576F8E6FFAE77057774662EF8A60706
:100DE300057680E47B007A0079661213588F438E70
:100DF300428D418C40E53814601F14603114604308
:100E030024037070AF43AE42AD41AC40AB3FAA3E4A
:100E1300A93DA83C12000A8053AB43AA42A941A8AA
:100E230040AF3FAE3EAD3DAC3C120006803EAF430B
:100E3300AE42AD41AC40AB3FAA3EA93DA83C120037
:100E4300FB8029E4FFFEFDFCAB43AA42A941A84075
:100E53001202A17004D20B801BAB43AA42A941A882
:100E630040AF3FAE3EAD3DAC3C1202048F378E36F1
:090E73008D358C34200B02D209EC
:010E7C002253
:10126500E4F55575900FE590540F640F60437F0AC0
:101275007E001213E9E590540F640F6034E5905435
:101285000FFF755580E55564086026E555F4FEF5B4
:1012950090E590540F640F6010EE54F0FDE5905406
:1012A5000F640F70F8EF2DFF22E555C313F5558038
:0312B500D47FFFE4
:0112B8002213
:1011A200121265EF1206F7120A7711FE7B11F27D19
:1011B20011E67E1207B711FBBB11EFBD11E3BE12A0
:1011C20004D711F8DB11ECDD11E0DE1201E711F5B5
:1011D200EB11E9ED11DDEE0000120D7F00227F011F
:1011E200227F02227F03227F04227F05227F0622A2
:1011F2007F07227F08227F09227F0A227F0B227F1C
:0E1202000C227F0D227F0E227F0F227FFF2203
:1013E900E4FDFCC3ED9FEC9E5015E4FAFB0BBB003A
:0F13F900010AEB647B4A70F50DBD00010C80E426
:0114080022C1
:1000030002034FE86480F8E933E83360110460F0D9
:10001300ED33EC337009E8FCE9FDEAFEEBFF220463
:1000230060DED3EB9FEA9EE99DE8C2E78CF0C2F75E
:1000330095F0400CE8CCF8E9CDF9EACEFAEBCFFB2A
:1000430012031A85D0F05804700320D5B3E8047066
:10005300075002B2D502035992D5EC0460F7E4CC01
:10006300C0E0C398F8603B94186008400DD0E0FBF3
:10007300020331E4FBFAC9FC8028E830E406E4C952
:10008300FBE4CAFCE830E305E4C9CACBFCE8540747
:100093006010F8C3E913F9EA13FAEB13FBEC13FC52
:1000A300D8F130F52FC3E49CFCEF9BFFEE9AFEEDF5
:1000B30099FDD0E0FBEF4E4D4C701222DB0302039F
:1000C30056EC2CFCEF33FFEE33FEED33FDED30E762
:1000D300EB020331EF2BFFEE3AFEED39FDD0E0FBEF
:1000E30050130BBB0003020359ED13FDEE13FEEF98
:0800F30013FFEC13FC020331C2
:1000FB00EC4D6011E8497017ED33EC3304600DE4FF
:10010B00FCFFFEFD22E933E8330470F802034F12C3
:10011B00031A58046009E4CC2481500628500902C4
:10012B000359284003020356C0E0EB4A7044B980E0
:10013B0006D0E0FB020345EF4E701CBD8008EBFFC1
:10014B00EAFEE9FD80EBE98DF0A4FEE5F00201E4A7
:10015B00E9CDF9EAFEEBFFEF89F0A4FCE5F0CE89DF
:10016B00F0A42EFFE435F0CD89F0A42DFEE435F09C
:10017B008067EF4E7005BD80D780C3EF8BF0A4ACCA
:10018B00F0EE8BF0A42CFCE435F0F8EF8AF0A42C05
:10019B00E5F038FCE433CB8DF0A42CFCE5F03BF818
:1001AB00EE8AF0A42CFCE5F038F8E433CF89F0A408
:1001BB002CFCE5F038CF3400CE89F0A42FFFE5F00E
:1001CB003EFEE433C98DF0A42EFEE5F039CD8AF066
:1001DB00A42FFFE5F03EFEE43DFD33D0E0FB5007DE
:1001EB000BBB000F020359EC2CFCEF33FFEE33FE7D
:0601FB00ED33FD020331AB
:10020100020359EC5D046005E85904700302034FD1
:1002110012031A580460F6EC4860F2EC7004FDFE1B
:10022100FF22C860DB2481C85009C39860025006D0
:100231000203569850CAF582E9294B4A7005AB82F0
:1002410002034575F0007C1A7880C3EF9BEE9AEDAE
:1002510099400DC3EF9BFFEE9AFEED99FDE842F048
:10026100DC23ACF0D0E0FFD0E0FED0E0FDAB82209B
:10027100E7101BEB60BAEC2CFCEF33FFEE33FEED25
:1002810033FD020331E803F830E705C0F075F000F3
:10029100EF2FFFEE33FEED33FD40B830E7C280AA09
:1002A10074F8CC6480CCC86480C8F58204604FC304
:1002B100EB9FF5F0EA9E42F0E99D42F0E89C45F0A3
:1002C100603C501DE5825FFFE582D313CB5BCBF42D
:1002D1002B5582FB50280ABA002409B90020088056
:1002E1001DE5825BFBE582D313CF5FCFF4C3132FF0
:1002F1005582FF50090EBE00050DBD00010CC3EB78
:100301009FF5F0EA9E42F0E99D42F0E89C45F060DD
:0903110007CC4820E701B3EC22FF
:10077200E56C2458F8E6056C227855300702785863
:10078200E475F0011206E702064B2000EB7F2ED241
:10079200008018EF540F2490D43440D4FF30040B5F
:1007A200EF24BFB41A0050032461FFE56D60021507
:1007B2006D0570E5707002056F30070D7855E475B0
:1007C200F0011206E7EF0206910213A07403D207AA
:1007D2008003E4C207F56C8B558A568957E4F56DA0
:1007E200F56FF570E56D60077F201207AD80F57536
:1007F2006EFFC201C200C202C203C205C206C20823
:1008020012077BFF700D3007057F001207BEAF7025
:10081200AE6F22B4255FC2D5C20412077BFF24D07B
:10082200B40A00501A75F00A786D30D50508B6FF83
:100832000106C6A426F620D5047002D20380D9246C
:10084200CFB41A00EF5004C2E5D204020AABD201BF
:1008520080C6D20080C0D20280BCD2D580BAD20576
:1008620080B47F201207AD2002077401B56D0040ED
:10087200F1120772FF1207AD0207E6D208D2068014
:1008820095120772FB120772FA120772F94A4B703D
:100892000679A27A0B7BFF20022EE56D602A7E008C
:1008A2008E8275830012066460060EEE656E70F02D
:1008B200C2D5EBC0E0EAC0E0E9C0E0EE120B0BD01B
:1008C200E0F9D0E0FAD0E0FB12064BFF60AAEBC0E1
:1008D200E0EAC0E0E9C0E01207ADD0E02401F9D0BF
:1008E200E03400FAD0E0FBE56E0460DCD56ED9801E
:1008F20087D20280A2120AEE60F7E56E700104123E
:100902000364A96E600DE56E600914F56E120B9515
:10091200EF60F3EA30E702F404C3995077EAF42572
:100922006E0430E701E404F56E800D120AEE60C138
:10093200EA056E256E120364EA786BF630E701E48D
:10094200256E04D56E0420050114120B0BE4C0E0E1
:10095200120B95786BE6601320E70714F6120795E1
:10096200802204F6D0E014C0E07F00120795E56E05
:10097200600712078C156E800B30050312078CD0AE
:10098200E00207E6D0E00480C5120AEE60A0E56E40
:1009920004120364786BEAF6E56E20050260010436
:0509A2002404120B0B00
:1009A70074FF04C0E0120B95120795E56E2005024F
:1009B700600312078CD0E0B56EE87F4512079F7879
:1009C7006BE67F2B30E7047F2DF404C0E01207AD00
:1009D700D0E075F00A84C0F0120796D0E0120796AF
:1009E7000207E6791080027908C206C2088008D299
:1009F700D5790A8004790AC2D5E56E047002F56ECE
:100A0700E4FAFDFEFF120772FC7B082001131207B0
:100A170072FD7B1030000A120772FE120772FF7B0D
:100A270020EC3382D592D55013C3E43000069FFFE4
:100A3700E49EFEE42001039DFDE49CFCE4CBF8C2A8
:100A470001EC700CCFCECDCCE824F8F870F380170A
:100A5700C3EF33FFEE33FEED33FDEC33FCEB33FB3B
:100A6700994002FB0FD8E9EB300105F8D0E0C44804
:100A7700B201C0E00AEC4D4E4F78207B0070C2EA0D
:100A8700B56E0040BCC0E0120B0DD0F0D0E02001E5
:100A970004C4C0E0C4B201C0F0120796D0F0D5F08C
:100AA700EB0207E61206F708835309EA5808544C85
:100AB70008504209EE4F09F64409F6490869430907
:100AC700FC55092D46098B4508F7470BC2500858B6
:100AD7002D085C2E087F2B086023087D200BAB2A8E
:100AE70008184800000877E56EB4FF03756E061214
:100AF7000772FC120772FD120772FE120772FF7867
:100B070064020393790AA2D5200314300509B910AA
:100B1700020404B9080104A2D520060250010420EA
:100B270002689202B56D005034C0E07F203003198F
:100B37007F30A20272067205500F120B64C202C206
:100B470006C205C2087F30800F300503E9C0E012F6
:100B570007AD300503D0E0F9D0E0B56DCC3005170F
:100B67007F30B9100C1207AD7F583004077F7880AB
:100B770003B908031207AD3002057F2D0207AD7FC9
:100B8700202008F87F2B2006F322920280CF7F00D7
:100B9700B4070050052464F8E6FF22286E756C6CD4
:100BA7002900D2011207723001F8C201786D30D5E1
:100BB7000108F60208182D504349581207722403FA
:100BC700B405004001E4900BBD9312079E743A12DE
:0A0BD700079ED203756D040209EABF
:10135800D2008B788A79897A121394C0E0FF12142C
:1013680052D0E040F3120E90400122ECC0E0EDC0F4
:10137800E0EEC0E0EFC0E0121394D0F0AFF0D0F090
:10138800AEF0D0F0ADF0D0F0ACF080D9E475F0015B
:0813980078781206E702064B0B
:10031A00E9D2E7C933E833F892D5EDD2E7CD33EC29
:07032A0033FC5002B2D522A2
:10033100EC30E7100FBF000C0EBE00080DBD00042D
:100341000BEB6014A2D5EB13FCED92E7FD2274FFD9
:10035100FCFDFEFF22E480F8A2D574FF13FC7D8032
:03036100E480EF46
:10036400F920E72824F950037907E4F42402FB1860
:10037400DBFDE624FB5014E9600DE4F618E604F610
:0F038400B40A08E4F6D9F57401F60A22C2D522AC
:10039300ED33EC3392D5FA602AB4FF33EDC2E77B39
:1003A300FF60067A0379B8E4227A0379C120D50481
:1003B3007A0379BC224E614E002B494E46002D49EB
:1003C3004E4600E47A08F608DAFC7B00740722E85C
:1003D300C0E0ECC0E0EDC0E0EEC0E0EFC0E0EA75E5
:1003E300F010A4CAABF075F04DA42BFBE435F0FC80
:1003F300EA2410FAEB34C5FBEC34D9FCEDC2E7FF79
:1004030075F056A4F42411C5F0F434C58FF0A42A72
:10041300E5F03BE43CF620E714120515D0E0FFD0ED
:10042300E0FED0E0FDD0E0FC1202048014F40412DC
:100433000515D0E0FFD0E0FED0E0FDD0E0FC1200D7
:10044300FBD0E0F8E6FAEDD2E7CD33EC332482FBC0
:10045300E4C3CF33CFCE33CECD33CD33DBF37B0702
:1004630075F00A846004F6081B0AE5F0F6088FF0BD
:10047300740AA4FFACF08EF0740AA42CFEACF05006
:10048300010C8DF0740AA42CFDE435F0F608DBDED4
:03049300740722C9
:100E7D00C201C202C203C204F9E4F57BF57CFCFD9C
:100E8D00FEFFE91000EA20030CB42D04D203D32297
:100E9D00B42B02D32224D0504794095041240A3058
:100EAD000415F8857CF0740AA42872E74051C5F04A
:100EBD00704D85F07CD322D202C0E0E4FBFA79209C
:100ECD0078411200FBECF8EDF9EEFAEFFBD0E0FC07
:100EDD00E41204B112000A3001B4157BD322240AA6
:100EED00200420B4FE0720011AD201D32224EB6086
:100EFD000424E0700EA2039201D204C203D322C3D4
:100F0D0002034FE430040BE57C300302F404A2012C
:100F1D0092033002EA257B20D2E5A2E7920450022B
:100F2D00F404B4260050D8CCC0E0EDC0E0EEC0E033
:100F3D00EFC0E0EC120515D0E0FFD0E0FED0E0FDF3
:100F4D00D0E0FC2004051200FB80031202043003E4
:060F5D0003120496C322FA
:10049600ED33EC33600A047003BD8004ECB2E7FC74
:0104A6002233
:1004A70075F020800E75F010800575F0087D007ED0
:1004B700007F003392D530D5031206D9EC334010B4
:1004C700EF33FFEE33FEED33FDEC33FCD5F0ED22D9
:0E04D700E5F0247EA2D513CC92E7CDCEFF2215
:1004E5003F8000004120000042C80000447A00001F
:1004F500461C400047C35000497424004B189680A1
:100505004CBEBC205A0E1BCA6753C21C749DC5AE97
:10051500FB60065407601C2323120543EB54386027
:100525000912052F12053E1200FBECF8EDF9EEFA63
:10053500EFCB22EB12053E80F1543803241C9004C6
:10054500E5FE93FC0EEE93FD0EEE930ECE93FF2289
:1010AB00021008E493A3F8E493A34003F68001F243
:1010BB0008DFF48029E493A3F85407240CC8C33346
:1010CB00C4540F4420C8834004F456800146F6DF15
:1010DB00E4800B01020408102040809012B9E47EDA
:1010EB00019360BCA3FF543F30E509541FFEE4930A
:1010FB00A360010ECF54C025E060A840B8E493A3D1
:10110B00FAE493A3F8E493A3C8C582C8CAC583CAFB
:10111B00F0A3C8C582C8CAC583CADFE9DEE780BEB3
:0113090000E3
:10055500E709F608DFFA8046E709F208DFFA803E88
:1005650088828C83E709F0A3DFFA8032E309F60875
:10057500DFFA8078E309F208DFFA807088828C83DD
:10058500E309F0A3DFFA806489828A83E0A3F60891
:10059500DFFA805889828A83E0A3F208DFFA804C6B
:1005A50080D280FA80C680D4806980F28033801042
:1005B50080A680EA809A80A880DA80E280CA8033AB
:1005C50089828A83ECFAE493A3C8C582C8CCC58323
:1005D500CCF0A3C8C582C8CCC583CCDFE9DEE780F3
:1005E5000D89828A83E493A3F608DFF9ECFAA9F072
:1005F500EDFB2289828A83ECFAE0A3C8C582C8CCC8
:10060500C583CCF0A3C8C582C8CCC583CCDFEADEE0
:10061500E880DB89828A83E493A3F208DFF980CC42
:1006250088F0EF60010E4E60C388F0ED2402B4043B
:100635000050B9F582EB2402B4040050AF232345E2
:0606450082239005A5735D
:10064B00BB010689828A83E0225002E722BBFE02AD
:09065B00E32289828A83E49322E0
:10066400BB010CE58229F582E5833AF583E022504B
:1006740006E92582F8E622BBFE06E92582F8E22295
:0D068400E58229F582E5833AF583E49322AF
:10069100BB010689828A83F0225002F722BBFE0148
:0206A100F32242
:1006A300C2D5EC30E709B2D5E4C39DFDE49CFCEE72
:1006B30030E715B2D5E4C39FFFE49EFE12071DC3C6
:1006C300E49DFDE49CFC800312071D30D507C3E4C1
:0606D3009FFFE49EFE22E1
:0E06D900C3E49FFFE49EFEE49DFDE49CFC2232
:1006E700FAE6FB0808E6F925F0F618E6CA3AF62214
:1006F700D083D082F8E4937012740193700DA3A392
:1007070093F8740193F5828883E4737402936860A5
:06071700EFA3A3A380DFA5
:1013A000EFB40A07740D1213AB740A309811A899A0
:1013B000B8130CC2983098FDA899C298B811F630AD
:0713C00099FDC299F5992285
:10145200EFC394094005EF940E4003BF2003D380ED
:0314620001C322A1
:10071D00BC000BBE0029EF8DF084FFADF022E4CCC0
:10072D00F875F008EF2FFFEE33FEEC33FCEE9DEC89
:10073D00984005FCEE9DFE0FD5F0E9E4CEFD22EDCF
:10074D00F8F5F0EE8420D21CFEADF075F008EF2F19
:10075D00FFED33FD4007985006D5F0F222C398FD0A
:05076D000FD5F0EA22A7
:00000001FF
